:100000000C946B000C9493000C9493000C9493004C
:100010000C9493000C9493000C9493000C94FD03A7
:100020000C9493000C9493000C9493000C94930004
:100030000C9493000C9493000C9493000C949300F4
:100040000C94B3030C9493000C9481030C945B0305
:100050000C9493000C9493000C9493000C949300D4
:100060000C9493000C9493000000000023002600E1
:10007000290000000008000201000003040700003E
:1000800000000000000000000000250028002B00F8
:1000900000000000240027002A00040404040404D3
:1000A0000404020202020202030303030303010227
:1000B00004081020408001020408102001020408F6
:1000C00010201112131415160A0B0C0D0E0F00013F
:1000D00002030405200511241FBECFEFD8E0DEBFC8
:1000E000CDBF11E0A0E0B1E0E4E2F0E102C0059094
:1000F0000D92A632B107D9F722E0A6E2B1E001C025
:100100001D92A931B207E1F710E0CBE6D0E004C0C0
:100110002197FE010E94FC07CA36D107C9F70E9449
:1001200066050C9410080C94000090E0FC01E25568
:10013000FF4F2491FC01E656FF4F8491882399F0EC
:1001400090E0880F991FFC01E057FF4FA591B491F3
:10015000FC01EA57FF4F859194918FB7F894EC9189
:10016000E22BEC938FBF0895CF92DF92EF92FF9234
:100170000F931F93CF93DF936C017A018B01C0E043
:10018000D0E0CE15DF0589F0D8016D918D01D60143
:10019000ED91FC910190F081E02DC6010995892B2C
:1001A00011F47E0102C02196ECCFC701DF91CF91FF
:1001B0001F910F91FF90EF90DF90CF9008950895D9
:1001C00080E090E00895FC01538D448D252F30E0B0
:1001D000842F90E0821B930B541710F0CF96089554
:1001E00001970895FC01918D828D981761F0828DA1
:1001F000DF01A80FB11D5D968C91928D9F5F9F735B
:10020000928F90E008958FEF9FEF0895FC01918DFC
:10021000828D981731F0828DE80FF11D858D90E069
:1002200008958FEF9FEF0895FC01918D228D892F06
:1002300090E0805C9F4F821B91098F7399270895EE
:1002400084E691E00E94140121E0892B09F420E06A
:10025000822F0895FC01848DDF01A80FB11DA35AE0
:10026000BF4F2C91848D90E001968F739927848FD6
:10027000A689B7892C93A089B1898C9180648C93CD
:10028000938D848D981306C00288F389E02D8081B8
:100290008F7D80830895EF92FF920F931F93CF93EA
:1002A000DF93EC0181E0888F9B8D8C8D981305C0C6
:1002B000E889F989808185FD24C0F62E0B8D10E038
:1002C0000F5F1F4F0F731127E02E8C8DE8120CC0AB
:1002D0000FB607FCFACFE889F989808185FFF5CF51
:1002E000CE010E942A01F1CF8B8DFE01E80FF11D96
:1002F000E35AFF4FF0820B8FEA89FB89808180628D
:1003000007C0EE89FF896083E889F989808180646C
:10031000808381E090E0DF91CF911F910F91FF905A
:10032000EF900895CF93DF93EC01888D8823C9F077
:10033000EA89FB89808185FD05C0A889B9898C91EE
:1003400086FD0FC00FB607FCF5CF808185FFF2CF89
:10035000A889B9898C9185FFEDCFCE010E942A0131
:10036000E7CFDF91CF91089580E090E0892B29F0CD
:100370000E94200181110C9400000895833081F0C7
:1003800028F4813099F08230A1F008958730A9F0E7
:100390008830B9F08430D1F4809180008F7D03C023
:1003A000809180008F7780938000089584B58F7747
:1003B00002C084B58F7D84BD08958091B0008F7791
:1003C00003C08091B0008F7D8093B00008951F938B
:1003D000CF93DF93282F30E0F901EE58FF4F84913F
:1003E000F901E255FF4FD491F901E656FF4FC49150
:1003F000CC23C9F0162F81110E94BE01EC2FF0E032
:10040000EE0FFF1FEA57FF4FA591B4918FB7F894F5
:10041000111105C09C91ED2FE095E92302C0EC91EC
:10042000ED2BEC938FBFDF91CF911F910895209119
:1004300001023091020240910302509104022417FC
:10044000350721F0682F822F0C94E7010895823040
:10045000910538F0880F991F880F991F059701970C
:10046000F1F708953FB7F89480913C0190913D01D8
:10047000A0913E01B0913F0126B5A89B05C02F3F3A
:1004800019F00196A11DB11D3FBFBA2FA92F982FBA
:100490008827820F911DA11DB11DBC01CD0142E035
:1004A000660F771F881F991F4A95D1F708958EBD53
:1004B00000000DB407FEFDCF8EB50895CF93DF93F6
:1004C0009CB59F7D9CBD9CB5937F9CBD9CB59C7F3E
:1004D0009CBD9DB591609DBDC1E0D2E0682F8A8131
:1004E0000E94E7018C899D89DF91CF910C942702AE
:1004F00081E00C945E0280E00C945E021F93CF9327
:10050000DF9300D0CDB7DEB76A8389830E947B0278
:1005100089818F7180620E945702182F6A81862F0D
:100520000E9457020E947802812F0F900F90DF9156
:10053000CF911F910895EF92FF920F931F93CF9346
:10054000DF9300D01F92CDB7DEB7162F4A837B838F
:1005500089830E947B0289818F7180620E94570289
:10056000082FE12E7B81F72E4A81140F1E1531F0E2
:10057000F70181917F010E945702F8CF0E94780213
:10058000802F0F900F900F90DF91CF911F910F91BF
:10059000FF90EF900895CF93DF931F92CDB7DEB712
:1005A00089830E947B0289818F710E9457028FEF9D
:1005B0000E94570289830E94780289810F90DF91FF
:1005C000CF91089580E00E94CB0281FD05C0682F85
:1005D000626080E00C947E020895CF93DF931F92B7
:1005E000CDB7DEB70E947B0281EE0E94570289835D
:1005F0000E94780289810F90DF91CF9108950E9427
:10060000E20280E00E94CB02682F616080E00E94DD
:100610007E0260E787E00E947E0281E00E9417026E
:1006200080910A02882341F040910F026AE072E053
:100630008AE00E949B0212C082E00E94CB02EEEC94
:10064000F0E0E49121E030E001C0220FEA95EAF702
:100650002095622F682382E00E947E028DE10E9435
:10066000CB0281FD0C94ED020895CF93DF93E8EC6B
:10067000F0E08491C1E0D2E04E8561E071E00E943B
:100680009B02E2ECF0E084916F810E947E0282E0A6
:100690000E94CB02EEECF0E0E49161E070E001C07A
:1006A000660FEA95EAF7682B82E0DF91CF910C9410
:1006B0007E020E9402081F920F920FB60F92112421
:1006C0002F933F934F935F936F937F938F939F935A
:1006D000AF93BF93EF93FF9384E691E00E942A01CA
:1006E000FF91EF91BF91AF919F918F917F916F910A
:1006F0005F914F913F912F910F900FBE0F901F90E0
:1007000018951F920F920FB60F9211242F938F936B
:100710009F93EF93FF93E0917401F09175018081B5
:10072000E0917A01F0917B0182FD12C0908180916D
:100730007D018F5F8F7320917E01821751F0E091D0
:100740007D01F0E0EC59FE4F958F80937D0101C053
:100750008081FF91EF919F918F912F910F900FBE0C
:100760000F901F9018951F920F920FB60F921124A1
:100770002F933F938F939F93AF93BF9380913801B3
:1007800090913901A0913A01B0913B01309137012C
:1007900023E0230F2D3720F40196A11DB11D05C0C4
:1007A00026E8230F0296A11DB11D209337018093E7
:1007B000380190933901A0933A01B0933B018091A5
:1007C0003C0190913D01A0913E01B0913F01019605
:1007D000A11DB11D80933C0190933D01A0933E016A
:1007E000B0933F01BF91AF919F918F913F912F9116
:1007F0000F900FBE0F901F9018951F920F920FB67B
:100800000F9211242F933F934F935F936F937F9396
:100810008F939F93AF93BF93CF93DF93EF93FF9308
:100820002091260130E0F901EE58FF4F8491F90143
:10083000E255FF4FD491F901E656FF4FC491CC2306
:10084000A1F081110E94BE01EC2FF0E0EE0FFF1F1E
:10085000E859FF4FA591B491EC91ED2331E020E0F0
:1008600009F430E0832F922F02C080E090E02091C5
:10087000290130912A012F5F3F4F30932A012093A5
:10088000290120913501309136012A30310518F0C7
:1008900025E020932701209127012330D9F018F477
:1008A000223041F0B1C0243009F45BC0253009F496
:1008B000A5C0AAC0009709F0A7C0209129013091D6
:1008C0002A01203D374008F49BC010923601109257
:1008D000350174C08130910509F096C0209129013D
:1008E00030912A012F3F310519F110F12091350186
:1008F00030913601A9014F5F5F4F5093360140930D
:1009000035014091290150912A01F901EA5DFE4F1C
:1009100055832091350130913601A9014F5F5F4F1A
:100920005093360140933501F901EA5DFE4F15827F
:100930002091350130913601A9014F5F5F4F5093EF
:100940003601409335014091290150912A01F90166
:10095000EA5DFE4F458310922A011092290124E09E
:100960004AC02091290130912A01009709F03FC027
:100970002F3F310519F110F12091350130913601E9
:10098000A9014F5F5F4F509336014093350140916D
:10099000290150912A01F901EA5DFE4F558320910A
:1009A000350130913601A9014F5F5F4F50933601F9
:1009B00040933501F901EA5DFE4F15822091350122
:1009C00030913601A9014F5F5F4F5093360140933C
:1009D00035014091290150912A01F901EA5DFE4F4C
:1009E000458310922A011092290123E004C0213D81
:1009F000374050F025E02093270106C0009721F4EE
:100A000010922A011092290120912801222329F015
:100A1000892B11F42D9A01C02D98FF91EF91DF9150
:100A2000CF91BF91AF919F918F917F916F915F9186
:100A30004F913F912F910F900FBE0F901F901895DF
:100A4000E4E6F1E01382128288EE93E0A0E0B0E0E9
:100A500084839583A683B7838BE091E09183808321
:100A600085EC90E09587848784EC90E09787868773
:100A700080EC90E0918B808B81EC90E0938B828B6B
:100A800082EC90E0958B848B86EC90E0978B868B44
:100A9000118E128E138E148EE1E0F2E08AE090E067
:100AA0009183808389E090E093838283168280E241
:100AB0008783108685E0868785E090E0A0E0B0E03F
:100AC000848B958BA68BB78B11860895CF93DF937C
:100AD00000D000D000D0CDB7DEB7789484B5826066
:100AE00084BD84B5816084BD85B5826085BD85B5D2
:100AF000816085BD80916E00816080936E00109250
:100B000081008091810082608093810080918100CA
:100B1000816080938100809180008160809380005B
:100B20008091B10084608093B1008091B0008160B9
:100B30008093B00080917A00846080937A008091E5
:100B40007A00826080937A0080917A00816080933D
:100B50007A0080917A00806880937A001092C100B8
:100B6000E0917401F091750182E08083E091700161
:100B7000F09171011082E0917201F091730187E6AA
:100B8000808310927C01E0917801F091790186E0F8
:100B90008083E0917601F09177018081806180838C
:100BA000E0917601F0917701808188608083E09107
:100BB0007601F0917701808180688083E0917601F1
:100BC000F091770180818F7D8083809101029091E7
:100BD000020220910302309104028217930711F060
:100BE0000E949500809103029091040220910102DD
:100BF000309102022817390711F00E9495001FB7A3
:100C0000F89480914001811124C0E4EAF0E08491DD
:100C1000E8EBF0E09491E82FF0E0EE0FFF1FE057D3
:100C2000FF4FA591B491EC91E92321F461E08AE0B2
:100C30000E94E7018AE00E9495008CB580618CBD1E
:100C40008CB580648CBD8DE00E9495008BE00E9485
:100C50009500809140018F5F809340011FBF80E02D
:100C60000E94170281E00E945E020E9432022B0164
:100C70003C0145E0C42ED12CE12CF12C0E94320223
:100C8000DC01CB0184199509A609B709883E934078
:100C9000A105B10558F021E0C21AD108E108F10818
:100CA00088EE480E83E0581E611C711CC114D104EB
:100CB000E104F10419F76CE080E00E947E026FE528
:100CC00084E00E947E0286E00E94CB02877D182F7E
:100CD00010628BE990E0A0E0B0E080931102909365
:100CE0001202A0931302B0931402612F86E00E94B7
:100CF0007E0286E00E94CB02811709F440C186E0A3
:100D00000E94CB0286E00E94CB02877D41E450E046
:100D100060E070E04093110250931202609313025E
:100D200070931402682F686086E00E947E0286E05D
:100D30000E94CB020E947B0280E50E94570283E75B
:100D40000E9457020E94780260E08DE10E947E02BC
:100D500060E08CE10E947E021092090260E787E069
:100D60000E947E026CE485E00E947E020E947B026B
:100D700082EE0E9457020E9478020E94ED020E94B9
:100D8000E20280E00E94CB02682F6E7F80E00E942A
:100D90007E0286E00E94CB02682F676086E00E9498
:100DA0007E0264E685E00E947E0261E184E00E94AA
:100DB0007E0284E08093080240910F0250E061E0DF
:100DC00071E08AE092E00E9407080E9435030E94C9
:100DD000FF02BB24B3949EECE92E90E0F92ECC24C4
:100DE000C394D12C3BE4A32E40910F0250E061E06C
:100DF00071E08AE092E00E9407080E9435030E9499
:100E0000FF020E9432022B013C010E943202DC01EF
:100E1000CB0184199509A609B70988369244A10522
:100E2000B105B8F487E10E94CB0280FFACC0EDCFE2
:100E30000E94780260E787E00E947E02B092430140
:100E400080914101909142010196909342018093DB
:100E5000410180914301882309F48EC040910F0223
:100E600061E071E08AE00E949B0240910F0261E024
:100E700071E080E10E949B026091080281E10E9482
:100E80007E0280E00E94170280911102909112026E
:100E90000E9427028DE10E94CB0281FF08C0809151
:100EA0001102909112020E9427020E94ED0280E03E
:100EB0000E94CB02682F6E7F80E00E947E0282E05B
:100EC0000E94CB02F7019491960101C0220F9A95DE
:100ED000EAF7682F622B82E00E947E0219821A8252
:100EE0001B821C821D82A9828091000191E0980FD3
:100EF000909300018B8310910802012F133008F0AA
:100F000002E080910902811102C0101B01C010E0B3
:100F10000E947B0280EA0E945702CE0101963C01AA
:100F2000015030F0F30181913F010E945702F8CF48
:100F3000112329F080E00E9457021150F9CF0E943E
:100F4000780281E00E9417020E947B028FEF0E94CC
:100F500057028E830E9478028E818073A9F380E00D
:100F60000E94170260E787E00E947E0284FF33C080
:100F70000E94ED02109243010E94B40135CF81E03E
:100F800080930702BCCE10910802103210F100E2EB
:100F900080910902811102C0101B01C010E00E9463
:100FA0007B0281E60E94570284E4682E81E0782E5D
:100FB000015038F08FEF0E945702F30181933F01F7
:100FC000F7CF112309F434CF8FEF0E94570211504D
:100FD000F8CF012FDDCF48E050E069E171E084E611
:100FE00091E00E94B40042E050E062E271E084E6E9
:100FF00091E00E94B400BECFEE0FFF1F0590F49168
:10100000E02D099481E090E0F8940C941008FB0125
:10101000DC0102C001900D9241505040D8F7089574
:04102000F894FFCF72
:1010240001493036373000000000004B01B400E3C2
:101034000092011401F200060172706C7953656E1E
:0610440074000D0A00001B
:107E0000112484B714BE81FFF0D085E080938100F7
:107E100082E08093C00088E18093C10086E0809377
:107E2000C20080E18093C4008EE0C9D0259A86E02C
:107E300020E33CEF91E0309385002093840096BBD3
:107E4000B09BFECF1D9AA8958150A9F7CC24DD24C4
:107E500088248394B5E0AB2EA1E19A2EF3E0BF2EE7
:107E6000A2D0813461F49FD0082FAFD0023811F036
:107E7000013811F484E001C083E08DD089C08234E0
:107E800011F484E103C0853419F485E0A6D080C0E4
:107E9000853579F488D0E82EFF2485D0082F10E0AE
:107EA000102F00270E291F29000F111F8ED06801E7
:107EB0006FC0863521F484E090D080E0DECF843638
:107EC00009F040C070D06FD0082F6DD080E0C81688
:107ED00080E7D80618F4F601B7BEE895C0E0D1E017
:107EE00062D089930C17E1F7F0E0CF16F0E7DF06D8
:107EF00018F0F601B7BEE89568D007B600FCFDCFD4
:107F0000A601A0E0B1E02C9130E011968C91119780
:107F100090E0982F8827822B932B1296FA010C0160
:107F200087BEE89511244E5F5F4FF1E0A038BF0790
:107F300051F7F601A7BEE89507B600FCFDCF97BE46
:107F4000E89526C08437B1F42ED02DD0F82E2BD052
:107F50003CD0F601EF2C8F010F5F1F4F84911BD097
:107F6000EA94F801C1F70894C11CD11CFA94CF0C13
:107F7000D11C0EC0853739F428D08EE10CD085E9AC
:107F80000AD08FE07ACF813511F488E018D01DD067
:107F900080E101D065CF982F8091C00085FFFCCF94
:107FA0009093C60008958091C00087FFFCCF809118
:107FB000C00084FD01C0A8958091C6000895E0E648
:107FC000F0E098E1908380830895EDDF803219F02E
:107FD00088E0F5DFFFCF84E1DECF1F93182FE3DFCA
:107FE0001150E9F7F2DF1F91089580E0E8DFEE27F6
:047FF000FF270994CA
:027FFE00040479
:0400000300007E007B
:00000001FF
