:100000000C9465000C948D000C948D000C948D0064
:100010000C948D000C948D000C948D000C94BF03F7
:100020000C948D000C948D000C948D000C948D001C
:100030000C948D000C948D000C948D000C948D000C
:100040000C9475030C948D000C9443030C941D03C5
:100050000C948D000C948D000C948D000C948D00EC
:100060000C948D000C948D000000000023002600ED
:10007000290000000008000201000003040700003E
:100080000000000000000001020304050000000061
:10009000250028002B0000000000240027002A0073
:1000A000040404040404040402020202020203031E
:1000B0000303030301020408102040800102040826
:1000C0001020010204081020E20411241FBECFEF0B
:1000D000D8E0DEBFCDBF11E0A0E0B1E0E6E5FEE094
:1000E00002C005900D92AC33B107D9F722E0ACE322
:1000F000B1E001C01D92AE30B207E1F710E0C5E6F5
:10010000D0E004C02197FE010E941E07C436D1072B
:10011000C9F70E9428050C9429070C94000090E070
:10012000FC01EC54FF4F2491FC01E056FF4F8491F9
:10013000882399F090E0880F991FFC01EA56FF4F41
:10014000A591B491FC01E457FF4F859194918FB72D
:10015000F894EC91E22BEC938FBF0895CF92DF924D
:10016000EF92FF920F931F93CF93DF936C017A016D
:100170008B01C0E0D0E0CE15DF0589F0D8016D918C
:100180008D01D601ED91FC910190F081E02DC60129
:100190000995892B11F47E0102C02196ECCFC7018D
:1001A000DF91CF911F910F91FF90EF90DF90CF9053
:1001B0000895089580E090E00895FC01538D448DEA
:1001C000252F30E0842F90E0821B930B541710F002
:1001D000CF96089501970895FC01918D828D98170F
:1001E00061F0828DDF01A80FB11D5D968C91928D1B
:1001F0009F5F9F73928F90E008958FEF9FEF089518
:10020000FC01918D828D981731F0828DE80FF11DE0
:10021000858D90E008958FEF9FEF0895FC01918DFB
:10022000228D892F90E0805C9F4F821B91098F73F4
:100230009927089589E591E00E940E0121E0892B1C
:1002400009F420E0822F0895FC01848DDF01A80FBE
:10025000B11DA35ABF4F2C91848D90E001968F73EE
:100260009927848FA689B7892C93A089B1898C910D
:1002700080648C93938D848D981306C00288F389D3
:10028000E02D80818F7D80830895EF92FF920F9300
:100290001F93CF93DF93EC0181E0888F9B8D8C8D32
:1002A000981305C0E889F989808185FD24C0F62E60
:1002B0000B8D10E00F5F1F4F0F731127E02E8C8DF9
:1002C000E8120CC00FB607FCFACFE889F9898081E3
:1002D00085FFF5CFCE010E942401F1CF8B8DFE0169
:1002E000E80FF11DE35AFF4FF0820B8FEA89FB897B
:1002F0008081806207C0EE89FF896083E889F9897F
:1003000080818064808381E090E0DF91CF911F91B4
:100310000F91FF90EF900895CF93DF93EC01888DBC
:100320008823C9F0EA89FB89808185FD05C0A889F9
:10033000B9898C9186FD0FC00FB607FCF5CF80817F
:1003400085FFF2CFA889B9898C9185FFEDCFCE01C9
:100350000E942401E7CFDF91CF91089580E090E0E3
:10036000892B29F00E941A0181110C940000089534
:10037000833081F028F4813099F08230A1F0089523
:100380008730A9F08830B9F08430D1F480918000B2
:100390008F7D03C0809180008F77809380000895C7
:1003A00084B58F7702C084B58F7D84BD0895809118
:1003B000B0008F7703C08091B0008F7D8093B00034
:1003C00008951F93CF93DF93282F30E0F901EE5863
:1003D000FF4F8491F901EC54FF4FD491F901E0569D
:1003E000FF4FC491CC23C9F0162F81110E94B80190
:1003F000EC2FF0E0EE0FFF1FE457FF4FA591B491F3
:100400008FB7F894111105C09C91ED2FE095E92369
:1004100002C0EC91ED2BEC938FBFDF91CF911F9138
:1004200008958230910538F0880F991F880F991F21
:1004300005970197F1F708953FB7F894809152011D
:1004400090915301A0915401B091550126B5A89BFC
:1004500005C02F3F19F00196A11DB11D3FBFBA2F56
:10046000A92F982F8827820F911DA11DB11DBC01B6
:10047000CD0142E0660F771F881F991F4A95D1F77B
:1004800008958F929F92AF92BF92CF92DF92EF9298
:10049000FF920E941C024B015C0185E0C82ED12C0A
:1004A000E12CF12C0E941C02DC01CB018819990976
:1004B000AA09BB09883E9340A105B10558F021E087
:1004C000C21AD108E108F10888EE880E83E0981E70
:1004D000A11CB11CC114D104E104F10419F7FF906F
:1004E000EF90DF90CF90BF90AF909F908F90089546
:1004F0008EBD00000DB407FEFDCF8EB50895CF93DD
:10050000DF93009779F0FC0101900020E9F7319723
:10051000AF01481B590BBC0189E591E00E94AE0078
:10052000EC0102C0C0E0D0E042E050E068E171E0E0
:1005300089E591E00E94AE008C0F9D1FDF91CF9165
:100540000895CF93DF939CB59F7D9CBD9CB5937F11
:100550009CBD9CB59C7F9CBD9DB591609DBDC6EF2B
:10056000D1E0682F8A810E94E1018C899D89DF9109
:10057000CF910C9411021F93CF93DF931F92CDB7AD
:10058000DEB7182F80E069830E94A102812F8F714E
:1005900080620E947802182F6981862F0E9478025B
:1005A00081E00E94A102812F0F90DF91CF911F91D6
:1005B0000895CF93C82F80E00E94A1028C2F8F71E5
:1005C0000E9478028FEF0E947802C82F81E00E947B
:1005D000A1028C2FCF910895CF9380E00E94A102B9
:1005E00081EE0E947802C82F81E00E94A1028C2F28
:1005F000CF9108950F931F93CF93DF93C82F162F9A
:1006000080E00E94A1028C2F8F7180620E9478028C
:10061000082FC0E0D1E01C0F1C1721F089910E9427
:100620007802FACF81E00E94A102802FDF91CF9162
:100630001F910F9108950E9424071F920F920FB6E9
:100640000F9211242F933F934F935F936F937F9358
:100650008F939F93AF93BF93EF93FF9389E591E0BF
:100660000E942401FF91EF91BF91AF919F918F91D3
:100670007F916F915F914F913F912F910F900FBE9E
:100680000F901F9018951F920F920FB60F92112482
:100690002F938F939F93EF93FF93E0916901F091D4
:1006A0006A018081E0916F01F091700182FD12C0BA
:1006B0009081809172018F5F8F73209173018217F7
:1006C00051F0E0917201F0E0E75AFE4F958F809370
:1006D000720101C08081FF91EF919F918F912F91C5
:1006E0000F900FBE0F901F9018951F920F920FB68C
:1006F0000F9211242F933F938F939F93AF93BF93A8
:1007000080914E0190914F01A0915001B091510103
:1007100030914D0123E0230F2D3720F40196A11DC8
:10072000B11D05C026E8230F0296A11DB11D20931F
:100730004D0180934E0190934F01A0935001B093CF
:1007400051018091520190915301A0915401B091B7
:1007500055010196A11DB11D809352019093530143
:10076000A0935401B0935501BF91AF919F918F9188
:100770003F912F910F900FBE0F901F9018951F92D1
:100780000F920FB60F9211242F933F934F935F93C5
:100790006F937F938F939F93AF93BF93CF93DF9389
:1007A000EF93FF9320913C0130E0F901EE58FF4FA9
:1007B0008491F901EC54FF4FD491F901E056FF4FB9
:1007C000C491CC23A1F081110E94B801EC2FF0E07C
:1007D000EE0FFF1FE859FF4FA591B491EC91ED2367
:1007E00031E020E009F430E0832F922F02C080E056
:1007F00090E020913F01309140012F5F3F4F3093B7
:10080000400120933F0120914B0130914C012A304F
:10081000310518F025E020933D0120913D01233062
:10082000D9F018F4223041F0B1C0243009F45BC093
:10083000253009F4A5C0AAC0009709F0A7C02091EF
:100840003F0130914001203D374008F49BC0109299
:100850004C0110924B0174C08130910509F096C093
:1008600020913F01309140012F3F310519F110F1E6
:1008700020914B0130914C01A9014F5F5F4F509384
:100880004C0140934B0140913F0150914001F901CF
:10089000E45CFE4F558320914B0130914C01A9013E
:1008A0004F5F5F4F50934C0140934B01F901E45C63
:1008B000FE4F158220914B0130914C01A9014F5FF1
:1008C0005F4F50934C0140934B0140913F01509139
:1008D0004001F901E45CFE4F458310924001109203
:1008E0003F0124E04AC020913F0130914001009730
:1008F00009F03FC02F3F310519F110F120914B0154
:1009000030914C01A9014F5F5F4F50934C014093D0
:100910004B0140913F0150914001F901E45CFE4FD1
:10092000558320914B0130914C01A9014F5F5F4FDE
:1009300050934C0140934B01F901E45CFE4F15824A
:1009400020914B0130914C01A9014F5F5F4F5093B3
:100950004C0140934B0140913F0150914001F901FE
:10096000E45CFE4F45831092400110923F0123E06A
:1009700004C0213D374050F025E020933D0106C0E2
:10098000009721F41092400110923F0120913E0106
:10099000222329F0892B11F42D9A01C02D98FF9163
:1009A000EF91DF91CF91BF91AF919F918F917F9107
:1009B0006F915F914F913F912F910F900FBE0F90CC
:1009C0001F901895E9E5F1E01382128288EE93E01A
:1009D000A0E0B0E084839583A683B7838AE091E0AA
:1009E0009183808385EC90E09587848784EC90E008
:1009F0009787868780EC90E0918B808B81EC90E0EC
:100A0000938B828B82EC90E0958B848B86EC90E0CC
:100A1000978B868B118E128E138E148EE6EFF1E07B
:100A20008AE090E09183808389E090E093838283E1
:100A3000168280E28783108685E0868785E090E0D5
:100A4000A0E0B0E0848B958BA68BB78B11860895C0
:100A5000789484B5826084BD84B5816084BD85B599
:100A6000826085BD85B5816085BD80916E008160A5
:100A700080936E001092810080918100826080934B
:100A8000810080918100816080938100809180004D
:100A90008160809380008091B10084608093B10078
:100AA0008091B00081608093B00080917A00846072
:100AB00080937A0080917A00826080937A0080919E
:100AC0007A00816080937A0080917A0080688093B8
:100AD0007A001092C100E0916901F0916A0182E010
:100AE0008083E0916501F09166011082E0916701D9
:100AF000F091680180E1808310927101E0916D01B5
:100B0000F0916E0186E08083E0916B01F0916C01C1
:100B1000808180618083E0916B01F0916C01808124
:100B200088608083E0916B01F0916C018081806826
:100B30008083E0916B01F0916C0180818F7D8083D7
:100B40008BE191E00E947F028091F6019091F70184
:100B50002091F8013091F9018217930711F00E945A
:100B60008F008091F8019091F9012091F601309168
:100B7000F7012817390711F00E948F00CFB7F894BA
:100B800080915601811124C0EAEAF0E08491EEEBF5
:100B9000F0E09491E82FF0E0EE0FFF1FEA56FF4FD0
:100BA000A591B491EC91E92321F461E08AE00E94DF
:100BB000E1018AE00E948F008CB580618CBD8CB50C
:100BC00080648CBD8DE00E948F008BE00E948F00BE
:100BD000809156018F5F80935601CFBF8091F601BF
:100BE0009091F7012091F8013091F9018217930754
:100BF00019F060E00E94E10181E00E94A1020E94E0
:100C000041026CE080E00E94BB026FE584E00E943C
:100C1000BB0286E00E94D902877DC82FC0628BE9A3
:100C200090E0A0E0B0E08093060290930702A093CA
:100C30000802B09309026C2F86E00E94BB0286E096
:100C40000E94D9028C1709F4F5C086E00E94D902EF
:100C500086E00E94D902877D41E450E060E070E0C8
:100C600040930602509307026093080270930902B2
:100C7000682F686086E00E94BB0286E00E94D9026D
:100C800080E00E94A10280E50E94780283E70E9432
:100C9000780281E00E94A10260E08DE10E94BB0227
:100CA00060E08CE10E94BB021092FE0160E787E0E9
:100CB0000E94BB026CE485E00E94BB0280E00E94BF
:100CC000A10282EE0E94780281E00E94A1020E94AD
:100CD000EC0280E00E94D90281FD05C0682F6260AD
:100CE00080E00E94BB0280E00E94D902682F6E7FE4
:100CF00080E00E94BB0286E00E94D902682F6760F4
:100D000086E00E94BB0264E685E00E94BB0261E1CE
:100D100084E00E94BB0284E08093FD0160910402A4
:100D20008AE00E94FA026091040280E10E94FA02C5
:100D30006091FD0181E10E94BB028091F6019091DA
:100D4000F7012091F8013091F9018217930719F00A
:100D500060E00E94E10180910602909107020E94EA
:100D600011028DE10E94D90281FF08C08091060224
:100D7000909107020E9411020E94EC0280E00E9402
:100D8000D902682F6E7F80E00E94BB0282E00E9441
:100D9000D902E6E8F0E0E49161E070E001C0660F9E
:100DA000EA95EAF7682B82E00E94BB0281E291E0BB
:100DB0000E947F0210925701C9E3D1E011E089E55A
:100DC00091E00E940E01181619068CF589E591E054
:100DD0000E94EC0080935801E82F880FFF0B808160
:100DE000823559F489E291E00E947F021093570105
:100DF0000E9441020C94000004C08FE291E00E9426
:100E00007F02E0915901F0915A010190F081E02DAB
:100E10006091580189E591E0099542E050E068E170
:100E200071E089E591E00E94AE00C09358010E94F4
:100E3000AE01C5CF81E08093FC0107CFEE0FFF1F0D
:100E40000590F491E02D099481E090E0F8940C94E1
:060E50002907F894FFCF12
:100E5600493036373000000000004501AE00DD00A5
:100E66008C010E01EC0000010D0A0053455455504B
:100E7600006E7266546573740072657365740072F1
:0C0E8600657365744661696C0030000003
:00000001FF
